:020000040800F2
:1000000000200020D90600085D0600085F060008F1
:1000100000000000000000000000000000000000E0
:100020000000000000000000000000006106000861
:1000300000000000000000006306000865060008DC
:100040002907000800000000290700082907000808
:1000500029070008290700082907000829070008C0
:100060000000000029070008290700086D060008A5
:1000700029070008290700082907000800000000D8
:1000800029070008290700080000000029070008C8
:100090002907000829070008290700082907000880
:1000A0002907000829070008290700082907000870
:1000B0007D060008000000000000000000000000B5
:1000C000002243088B4274D303098B425FD3030A97
:1000D0008B4244D3030B8B4228D3030C8B420DD3AA
:1000E000FF22090212BA030C8B4202D31212090238
:1000F00065D0030B8B4219D300E0090AC30B8B4276
:1001000001D3CB03C01A5241830B8B4201D38B0323
:10011000C01A5241430B8B4201D34B03C01A5241C8
:10012000030B8B4201D30B03C01A5241C30A8B420B
:1001300001D3CB02C01A5241830A8B4201D38B02F6
:10014000C01A5241430A8B4201D34B02C01A52419A
:10015000030A8B4201D30B02C01A5241CDD2C3090C
:100160008B4201D3CB01C01A524183098B4201D388
:100170008B01C01A524143098B4201D34B01C01A73
:10018000524103098B4201D30B01C01A5241C308EB
:100190008B4201D3CB00C01A524183088B4201D35A
:1001A0008B00C01A524143088B4201D34B00C01A46
:1001B0005241411A00D20146524110467047FFE7B2
:1001C00001B5002000F006F802BDC0460029F7D0B6
:1001D00076E770477047C0460448054B10B5834228
:1001E00003D0044B002B00D0984710BD48050020D9
:1001F000480500200000000006480749091A8B1036
:10020000C90FC91810B5491003D0044B002B00D0FA
:10021000984710BD48050020480500200000000058
:1002200010B5074C2378002B09D1FFF7D5FF054BFC
:10023000002B02D0044800E000BF0123237010BD52
:100240004805002000000000282A0008054B10B5D2
:10025000002B03D00449054800E000BFFFF7CCFFA6
:1002600010BDC046000000004C050020282A0008F0
:1002700010B504000068E389C018626802F0E4F970
:10028000E38962689B189BB2E381E3899BB2A26811
:10029000934201D30023E38110BD10B50400080090
:1002A0002168A389C918626802F0CEF9A38962683F
:1002B0009B189BB2A381A3899BB2A268934201D3EE
:1002C0000023A38110BD000030B589B014220021A5
:1002D00003A802F003F91D4B5A69802109030A4360
:1002E0005A615A690A400092009A5A698021C903EA
:1002F0000A435A615A690A400192019A5A69802157
:1003000089020A435A615B690B400293029B902564
:10031000ED0500222021280000F04CFC80239B01E9
:10032000039384239B0304930024059403A90848A2
:1003300000F07CFB202303931F3B04930594069459
:1003400003A9280000F072FB09B030BD0010024084
:100350000008004800B583B0094A516901231943D8
:100360005161526913400193019B002200210B202F
:1003700000F072FA0B2000F073FA03B000BDC04623
:1003800000100240F8B505000E00002818D0142017
:1003900001F0A2FD041E0CD07543280001F09CFD65
:1003A000071E206007D06660A5600023A381E3815B
:1003B00023612000F8BD200001F098FD3C00F8E723
:1003C0000024F6E7026983689A4201D3012070474E
:1003D0000020FCE770B504000D00FFF7F3FF0028D4
:1003E00001D0002070BD29002000FFF741FF2369E4
:1003F00062689B1823610120F4E7000010B50268D1
:10040000074B9A4200D010BD064C074B18682100DC
:10041000FFF7E0FF05480122210001F025FDF2E78A
:10042000004400406C05002070050020B805002045
:100430000369002B01D1012070470020FCE770B553
:1004400004000D00FFF7F4FF002801D0002070BD6C
:1004500029002000FFF721FF236962689B1A2361AE
:100460000120F4E772B6FEE710B50B480B4B0360B2
:1004700096239B01436000238360C36003610C22C9
:1004800042618361C3610362436201F03FFC002863
:1004900000D110BDFFF7E6FFB80500200044004082
:1004A00000B591B03022002104A802F017F8102204
:1004B0000021684602F012F80223049301220792F9
:1004C0000F3208920C93A0239B030E9304A800F014
:1004D00077FB00280ED107230093053B01930023EF
:1004E000029303930121684600F0E2FD002803D146
:1004F00011B000BDFFF7B6FFFFF7B4FF10B582B033
:1005000000F03CF901210A20FFF73CFF184B18606E
:10051000FFF7C6FFFFF7D8FEFFF71CFFFFF7A4FFAA
:10052000144A154C0321200000F0AAFF13490122B0
:10053000200001F099FC0DE06B46DC1D0C4B1868A7
:100540002100FFF77CFF0E490B780E4A2078D0542B
:1005500001330B70064B1868FFF76AFF0028EBD0D9
:10056000074B1A7807490448642301F0EEFAF1E7D3
:1005700070050020FD030008B80500206C05002070
:10058000680500206405002082B00A4B99690122A9
:100590001143996199690A400092009ADA698021B1
:1005A00049050A43DA61DB690B400193019B02B004
:1005B0007047C0460010024010B588B004001422F5
:1005C000002103A801F08AFF2268204B9A4201D043
:1005D00008B010BD1E4BD969802292021143D96127
:1005E000D9691140019101995969114359615B69B8
:1005F00013400293029B0C2303930A3B0493013B99
:100600000793902003A9C00500F010FA1148124B7F
:1006100003600023436083608022C2600361436102
:100620008361C36100F03EF900280BD1094B636779
:100630005C62002200211C2000F00EF91C2000F05A
:100640000FF9C5E7FFF70EFFF0E7C0460044004092
:10065000001002407405002058000240FEE7FEE74B
:100660007047704710B500F099F810BD10B50248FA
:1006700000F087F910BDC0467405002010B502488F
:1006800000F060FF10BDC046B805002010B50300A3
:100690000C4A0D49521A0D490968002907D00B4927
:1006A0000868C318934206D8084A136010BD07496A
:1006B00007480860F3E701F009FC0C230360012000
:1006C0004042F3E700200020000400006C060020F8
:1006D00080090020704700000D488546FFF7FAFFAB
:1006E0000C480D490D4A002302E0D458C45004338D
:1006F000C4188C42F9D30A4A0A4C002301E0136063
:100700000432A242FBD301F03DFFFFF7F7FEFEE704
:10071000002000200000002048050020B82A000822
:100720004805002080090020FEE7000010B5040005
:100730000F4B1978FA208000FFF7C2FC01000D4B27
:100740001868FFF7BDFC00F097F800280DD1032CC6
:1007500001D901200AE0013000222100404200F0CE
:100760007BF8054B1C60002000E0012010BDC04656
:1007700004000020000000200800002010B5064AF8
:10078000136810210B4313600020FFF7CFFFFFF722
:10079000FBFE002010BDC04600200240034A116845
:1007A000034B1B785B1813607047C046700600202F
:1007B00004000020014B18687047C04670060020F6
:1007C00070B5002811DB8308134DC0339B005C59C2
:1007D00003221040C000FC3216008640B443890159
:1007E0000A40824022435A5170BD0F230340083B08
:1007F0009B0806339B00094A944663445C680322C5
:100800001040C000FC3215008540AC4389010A400D
:10081000824022435A60E7E700E100E000ED00E09B
:10082000013880235B0498420FD2094A506009487E
:10083000036A1B021B0AC02109060B430362002343
:10084000936007331360002070470120FCE7C04627
:1008500010E000E000ED00E010B5FFF7B1FF10BDC3
:10086000002805DB1F22024001239340014A136048
:100870007047C04600E100E010B5FFF7D1FF10BDA2
:1008800010B504000068054B9C4660441421FFF736
:1008900017FC80002064024BE36310BDF8FFFDBF2E
:1008A0000000024070B5041E20D0212502234355CC
:1008B00001680A680E4B1A40436880680343E06889
:1008C00003432069034360690343A0690343E0696C
:1008D000034313430B602000FFF7D2FF0023A36301
:1008E000012262551F32A354002070BD0120FCE795
:1008F0000FC0FFFF10B52123C35C022B06D00423D9
:1009000083631C330022C254012010BD02681368A7
:100910000E218B43136001680A6801239A430A6021
:10092000016CC26B1C008C405460212283541F3325
:100930000022C2540020E8E710B52123C35C022B3B
:1009400003D004238363012010BD026813680E21C5
:100950008B43136001680A6801239A430A60016CA3
:10096000C26B1C008C405460212283541F33002230
:10097000C254436B002B02D098470020E4E70020CC
:10098000E2E770B5C36B1A6804682568016C04233C
:100990008B401A4212D06B0710D523689B0603D4F4
:1009A0002368042293432360016CC26B04238B40B1
:1009B0005360C36A002B00D0984770BD02238B4060
:1009C0001A4218D0AB0716D523689B0606D42368B5
:1009D0000A22934323602123093AC254016CC26B5B
:1009E00002238B40536020230022C254836A002BD1
:1009F000E3D09847E1E708238B401A42DDD02D076A
:100A0000DBD523680E2293432360016CC26B012364
:100A10001C008C4054608363212283541F330022C6
:100A2000C254036B002BC8D09847C6E7F0B583B01B
:100A3000002356E086685F000324BC40A643CC68D0
:100A4000BC4034438460446894434E6836090122B4
:100A500032409A402243426053E0DE080836B60036
:100A6000375805321A4092000F249440A7430C696E
:100A7000944022003A43325056E0032600E000261C
:100A8000A64034003C4302329200444E9451444A02
:100A90009768EA433E00AE434C68E40201D53E004D
:100AA0002E433F4CA660E7683E0016404C68A40207
:100AB00001D53E002E433A4CE66067683E00164082
:100AC0004C68A40301D53E002E43354C6660266871
:100AD00032404C68E40301D52A003243304C226096
:100AE00001330C682200DA4056D001229A402500DA
:100AF00015401442F4D04E6803243440013C012CCC
:100B000098D94C6803222240032A08D0C4685E00AA
:100B10000322B24094438A68B2402243C2604C68C8
:100B200003222240022A98D004685E0003221700A4
:100B3000B740BC434F683A40B240224302604C6821
:100B4000C02292021442CBD0164CA6690122164351
:100B5000A661A46922400192019A9A08941CA400FB
:100B60000E4EA75903241C40A4000F26A640B743ED
:100B70009026F605B04282D00B4EB04208D00B4E04
:100B8000B04207D00A4EB04200D176E7052677E79B
:100B9000012675E7022673E703B0F0BD00000140AF
:100BA0000004014000100240000400480008004812
:100BB000000C0048002A01D0816170478162FCE787
:100BC00070B582B0041E00D12EE20368DB0726D583
:100BD000AE4B5A680C231340042B18D0AB4B5A6809
:100BE0000C231340082B0ED06368012B3CD0002B44
:100BF00051D1A64B1A68A6490A401A601A68A5493D
:100C00000A401A6036E0A14B5B68DB03ECD59F4BD2
:100C10001B689B0303D56368002B00D107E22368A0
:100C20009B0772D5994B5B680C221A425DD0974B9B
:100C30005A680C231340082B53D0E368002B00D1D3
:100C400085E0924A136801210B431360FFF7B2FD60
:100C500005008E4B1B689B0770D4FFF7ABFD401B54
:100C60000228F6D90320E0E1884A116880235B025C
:100C70000B4313606368002B25D0FFF79BFD050035
:100C8000824B1B689B03CAD4FFF794FD401B64286A
:100C9000F6D90320C9E1052B09D07C4B1A687C49A1
:100CA0000A401A601A687B490A401A60E2E7774BEB
:100CB00019688022D2020A431A60196880225202FF
:100CC0000A431A60D6E7FFF775FD05006F4B1B68F6
:100CD0009B03A4D5FFF76EFD401B6428F6D90320C3
:100CE000A3E16A4B5B68DB03A7D4684B1B689B07D7
:100CF00003D5E368012B00D09BE164490B68F8221F
:100D000093432269D20013430B6023681B0744D529
:100D1000E369002B2ED05D4A536A01210B435362D5
:100D2000FFF748FD0500594B5B6A9B0735D4FFF779
:100D300041FD401B0228F6D9032076E153490B6898
:100D4000F82293432269D20013430B60DDE74F4A38
:100D5000136801218B431360FFF72CFD05004B4BFB
:100D60001B689B07D1D5FFF725FD401B0228F6D94C
:100D700003205AE1454A536A01218B435362FFF72E
:100D800019FD0500414B5B6A9B0706D5FFF712FD75
:100D9000401B0228F6D9032047E123685B0700D4F3
:100DA00080E03A4BDB69DB001DD4384BDA698021E7
:100DB00049050A43DA61DB690B400193019B012578
:100DC000354B1B68DB0510D5A368012B21D0002B08
:100DD00036D12E4B1A6A01218A431A621A6A0331EC
:100DE0008A431A621AE00025EAE72B4A1168802339
:100DF0005B000B431360FFF7DDFC0600264B1B680E
:100E0000DB05E1D4FFF7D6FC801B6428F6D903206C
:100E10000BE11E4A136A01210B431362A368002BE6
:100E200024D0FFF7C7FC0600184B1B6A9B0737D47A
:100E3000FFF7C0FC801B194B9842F5D90320F4E062
:100E4000052B09D0114B1A6A01218A431A621A6ACA
:100E500003318A431A62E1E70C4B1A6A04210A4300
:100E60001A621A6A03390A431A62D7E7FFF7A2FC2B
:100E70000600064B1B6A9B0712D5FFF79BFC801BE5
:100E8000064B9842F5D90320CFE0C046001002403F
:100E9000FFFFFEFFFFFFFBFF007000408813000014
:100EA000012D33D02368DB0610D56369012B33D0C5
:100EB000053351D1654A536B04218B435363536B04
:100EC000F4318B43A169C9000B435363236A002BA0
:100ED00000D1B0E05D4A51680C220A40082A00D1D6
:100EE0008AE0022B4FD0594A136859490B401360CE
:100EF000FFF760FC0400554B1B689B017AD5FFF798
:100F000059FC001B0228F6D903208EE04F4AD36912
:100F100050490B40D361C5E74C4B5A6B04210A433F
:100F20005A635A6B03390A435A63FFF743FC0500BF
:100F3000464B5B6B9B0706D4FFF73CFC401B02282B
:100F4000F6D9032071E041494B6BF8229343A26923
:100F5000D20013434B63B9E73C4B5A6B04210A435D
:100F60005A635A6B03398A435A63FFF723FC05001F
:100F7000364B5B6B9B07A9D5FFF71CFC401B022877
:100F8000F6D9032051E0314A136831490B40136010
:100F9000FFF710FC05002D4B1B689B0106D5FFF7E2
:100FA00009FC401B0228F6D903203EE0274BDA6AF1
:100FB0000F218A43E16A0A43DA625A6826490A40E5
:100FC000A16A606A01430A435A6019688022520488
:100FD0000A431A60FFF7EEFB04001C4B1B689B01E1
:100FE00006D4FFF7E7FB001B0228F6D903201CE01C
:100FF00000201AE0002018E0012B1ED0134B5A6885
:10100000D86A80235B021340616A8B4217D10F2399
:101010000340E16A8B4214D1F0239B031A40A36A78
:101020009A4210D1002000E0012002B070BD0120E2
:10103000FBE70120F9E70020F7E70120F5E70120B1
:10104000F3E70120F1E70120EFE7C046001002407E
:10105000FFFFFFFEFFFFFFEFFFFFC2FF10B5104BCA
:101060005A680C231340082B01D00E4810BD910C78
:10107000073319400C48445C0949C96A0B400B49C5
:10108000C95CD20304D50748FFF71AF86043EDE7BF
:101090006201121B93019B1ADB001B191802E5E782
:1010A0000010024000127A00682A0008582A00083E
:1010B00070B504000D00002800D17EE0434B1A6893
:1010C000012313408B420AD240490B68012293430B
:1010D0002B430B600B681A40AA4200D06FE02368D4
:1010E0009A070ED55B0705D5394A5168E023DB0026
:1010F0000B435360364A5368F0218B43A1680B437E
:1011000053602368DB072DD56368012B1ED0022BAB
:1011100022D02F4A1268920753D52D494A680320DE
:10112000824313434B60FFF745FB0600284B5B6887
:101130000C221A4063689B009A4213D0FFF73AFBD7
:10114000801B244B9842F1D9032035E0204A1268D5
:101150009203E2D401202FE01D4A12689201DCD4F0
:10116000012029E0194B1A6801231340AB4209D929
:1011700016490B68012293432B430B600B681A40FE
:10118000AA4220D123685B0706D5114A5368124949
:101190000B40E1680B435360FFF760FF0C4B5A684C
:1011A00012090F2313400D4AD35CD8400C4B186032
:1011B0000020FFF7BBFA002070BD0120FCE70120F2
:1011C000FAE70120F8E70120F6E7C04600200240D8
:1011D0000010024088130000FFF8FFFF482A0008B3
:1011E00000000020014B18687047C0460000002036
:1011F00010B5FFF7F7FF044B5A68120A0723134094
:10120000024AD35CD84010BD00100240402A0008BA
:101210007047704770477047704770477047704716
:101220007047000010B5EFF3108C012282F3108894
:1012300001680B68124C23400B608CF31088EFF3AD
:10124000108C82F3108801688B6893438B608CF359
:101250001088036E012B06D080232022C250002369
:101260000366836610BDEFF3108183F31088026874
:1012700013683234FF34A343136081F31088EBE723
:10128000DFFEFFFF10B5406A00235A228352083A5E
:1012900083529833C358984710BD10B5EFF31081AF
:1012A000012383F31088026813684024A34313606A
:1012B00081F310882023C3670023C3668C33C3588F
:1012C000984710BD10B55C23C35A80228258222A49
:1012D00005D00268936908210B43936110BD026831
:1012E000928CDBB2416D13400B70436D013343654B
:1012F0005A22835A013B9BB28352835A9BB2002BE2
:10130000ECD1EFF3108C593A82F3108801680B6826
:10131000224C23400B608CF31088EFF3108C82F387
:10132000108801688B6893438B608CF3108880234E
:101330001F32C25000238366436603685B681B024A
:101340000BD5EFF31081012383F310880268136833
:10135000134C2340136081F31088036E012B03D0DC
:101360009423C3589847B9E700230366EFF310842A
:10137000013383F3108801680B68102293430B60DC
:1013800084F310880368D9690A4200D01A62A8233E
:10139000C3585822815A9847A0E7C046DFFEFFFF96
:1013A000FFFFFFFB10B55C23C25A2433C358222B26
:1013B00005D00268936908210B43936110BD03684F
:1013C0009B8C416D13400B80436D023343655A2261
:1013D000835A013B9BB28352835A9BB2002BEDD1BF
:1013E000EFF3108C593A82F3108801680B68224C95
:1013F00023400B608CF31088EFF3108C82F310887D
:1014000001688B6893438B608CF3108880231F32B4
:10141000C25000238366436603685B681B020BD5DA
:10142000EFF31081012383F3108802681368134CD3
:101430002340136081F31088036E012B03D09423A3
:10144000C3589847BAE700230366EFF310840133CB
:1014500083F3108801680B68102293430B6084F3B8
:1014600010880368D9690A4200D01A62A823C358B9
:101470005822815A9847A1E7DFFEFFFFFFFFFFFBDD
:1014800010B5002A10D0C36F202B14D0C36F002BCF
:101490004ED10B2944D00C2946D0842283584021B8
:1014A0000B438350012049E08432835840210B4391
:1014B0008350012042E00C292BD88B00204CE358AC
:1014C0009F468823C250080038E08C23C250002079
:1014D00034E09023C250002030E09423C25000201A
:1014E0002CE09823C250002028E09C23C25000200A
:1014F00024E0A023C250002020E0A423C2500020FA
:101500001CE0AC23C250002018E0B023C2500020E1
:1015100014E08422835840210B43835001200DE0C6
:10152000AC23C250002009E0B023C250002005E0E7
:101530008422835840210B438350012010BDC046B4
:10154000782A000870B504000268D36911689068B1
:10155000A84D2B4209D198060FD588060DD5A36E4C
:10156000002B18D02000984715E001252E000640DA
:10157000054211D1A04801420ED1206E012800D1B0
:1015800090E01A0602D50A0600D527E15B0602D5CF
:10159000490600D529E170BDD80707D5C80505D58E
:1015A00001251562842022582A4322509A0709D522
:1015B000002E07D0226802201062823022580425B3
:1015C0002A4322505A0709D5002E07D0226804204A
:1015D00010628030225802252A4322501A070AD569
:1015E0008A0601D4002E06D02268082515628420C0
:1015F00022582A4322501A050AD54A0108D52268E2
:101600008020000110628420225820252A43225085
:101610008422A258002ABED09B0606D5890604D58E
:10162000A36E002B01D0200098478423E258236842
:101630009B685B0602D4282313422BD02000FFF7BF
:10164000F1FD23689B685B061FD5EFF31081012332
:1016500083F310882268936840208343936081F36A
:101660001088636F002B0BD0644A5A63606FFFF7DA
:1016700063F9002800D18EE7606F436B98478AE7D3
:101680009823E3582000984785E79823E3582000E3
:10169000984780E79823E358200098478423002246
:1016A000E25078E7D80600D46BE7C80600D468E7B4
:1016B0001023136223689B685B0653D5626F13681F
:1016C0005B689BB2002B00D165E75821615A9942B3
:1016D00000D860E75A2163529369202B0CD1022372
:1016E0006366A633E3585822A15A0232A25A891AD5
:1016F00089B2200098474EE7EFF31080012383F36F
:10170000108821680A683E4D2A400A6080F31088DC
:10171000EFF3108083F3108821688A689A438A6007
:1017200080F31088EFF3108083F3108821688A68B3
:101730004235FF35AA438A6080F310888022202139
:10174000A15000222266EFF3108183F310882268F3
:10175000136810208343136081F31088606FFFF7D4
:10176000C9F8BCE75823E35A5A22A15A591A89B238
:10177000A35A9BB2002B00D10DE7002900D10AE744
:10178000EFF31085012383F31088206802681D4E53
:101790003240026085F31088EFF3108583F31088E0
:1017A000206882689A43826085F310888022202016
:1017B000A05000222266A266EFF3108083F3108807
:1017C000226813681025AB43136080F3108802234E
:1017D0006366A633E35820009847DCE6E36E002BEF
:1017E00000D1D8E620009847D5E62000FFF755FD48
:1017F000D1E6C0460F080000200100048512000851
:10180000FFFEFFFFDFFEFFFF0D4B882283500D4BD5
:10181000043283500C4B043283500C4B04328350FF
:101820000B4B043283500B4B043283500A4B04326F
:1018300083500A4B04328350094B04328350704763
:1018400013120008111200081712000815120008E0
:10185000191200081B1200081D1200081F120008B0
:101860002112000810B5040083680269134342691D
:101870001343C269134301680A684E480240134388
:101880000B60226853684C490B40E1680B4353607E
:10189000A369226A1A4321688B68484803401343AE
:1018A0008B602368464A934211D0464A93421FD028
:1018B0001023E06980221202904223D0042B6AD0C8
:1018C0004ED8002B53D0022B48D13F4853E03F4B1A
:1018D0001A6B03231340022B0CD005D8002B0BD01E
:1018E000012B0BD10333E4E7032B09D1013BE0E7E4
:1018F0000023DEE70823DCE70023DAE71023D8E73C
:101900001023D6E7042B26D007D8002B09D0022BB2
:1019100001D12D4809E0012047E0082B05D0012026
:1019200043E0FFF765FC002838D0400061684B08B1
:10193000C018FEF7C5FB0200103A254B9A422FD87B
:1019400082B20F239A434008083B034013432268A6
:10195000D360002029E0FFF781FBE4E7012024E0C9
:10196000082B02D18020000205E001201DE0FFF7D6
:101970003FFC002816D061684B081818FEF7A0FB42
:101980000200103A124B9A420ED823680004000C51
:10199000D860002009E0FFF761FBEAE7002004E0DF
:1019A000012002E0002000E001200023A366E3669E
:1019B00010BDC046F369FFFFFFCFFFFFFFF4FFFF3D
:1019C000003801400044004000127A00001002403C
:1019D000EFFF0000436ADB0706D5026853682C4915
:1019E0000B40816A0B435360436A9B0706D502682C
:1019F000536828490B40C16A0B435360436A5B0735
:101A000006D50268536824490B40016B0B435360B1
:101A1000436A1B0706D50268536820490B40416B97
:101A20000B435360436ADB0606D5026893681C4982
:101A30000B40816B0B439360436A9B0606D502689B
:101A4000936818490B40C16B0B439360436A5B0674
:101A50000BD50268536814490B40016C0B4353606B
:101A6000026C80235B039A420AD0436A1B0606D5A8
:101A7000026853680D490B40816C0B4353607047FB
:101A8000026853680A490B40416C0B435360ECE712
:101A9000FFFFFDFFFFFFFEFFFFFFFBFFFF7FFFFFDD
:101AA000FFEFFFFFFFDFFFFFFFFFEFFFFFFFF7FF8E
:101AB000FFFF9FFFF8B5CE46474680B506000D00F4
:101AC00017009946089B98463368DC692C40641BD4
:101AD00063425C41BC422FD143460133F4D0FEF750
:101AE00069FE4B46C01A40452BD84346002B2AD0EE
:101AF00033681A685207E7D5DA69120710D4DA6931
:101B00001205E1D5802212011A623000FFF78AFB2C
:101B100084232022F2500C3B0022F25403200CE0DC
:101B200008241C623000FFF77DFB8423F4500C3B3B
:101B30000022F254012000E00020C0BCB946B046AB
:101B4000F8BD0320F9E70320F7E7F0B5C64600B576
:101B500082B004000D0090461E00C36F202B62D19E
:101B6000002965D0002A65D0826880235B019A42F3
:101B700004D10369002B01D1CB075DD4842300225B
:101B8000E250633BE367FEF715FE07005023424631
:101B9000E2520233E252A26880235B019A4202D0F1
:101BA000002398461AE02369002B02D000239846B0
:101BB00014E0A846002511E02023E367032033E06A
:101BC00043461B882268DB05DB0D138502239C46F8
:101BD000E0445223E25A013A92B2E2525223E35ACB
:101BE0009BB2002B0FD000963B00002280212000EA
:101BF000FFF760FF0028DFD1002DE1D02A782368AD
:101C00001A850135E5E700963B00002240212000BF
:101C1000FFF750FF002802D12023E36704E02023D0
:101C2000E367032000E0022002B080BCB846F0BDAC
:101C30000120F9E70120F7E70120F5E730B583B08F
:101C4000040084230022C250FEF7B4FD050023687F
:101C50001B681B070FD423681B685B0729D420234C
:101C6000E3678022A350002323666366083AA354E7
:101C7000002003B030BD8021224B009303000022DE
:101C800089032000FFF716FF0028E4D0EFF310814E
:101C9000012383F310882268136880208343136034
:101CA00081F310882023E36758330022E2547D3803
:101CB000DFE78021134B00932B000022C903200093
:101CC000FFF7F8FE0028CAD0EFF31080012282F35C
:101CD000108821680B680C4D2B400B6080F3108836
:101CE000EFF3108082F3108821688B6893438B6038
:101CF00080F3108880231F32E250083B0022E25418
:101D00000320B6E7FFFFFF01DFFEFFFF10B5041E53
:101D10003AD0C36F002B21D02423E36722681368D5
:101D200001218B4313602000FFF79CFD012814D094
:101D3000636A002B24D12268536814490B40536016
:101D40002268936808218B439360226813680739DF
:101D50000B4313602000FFF771FF10BD78330022A2
:101D6000C254FFF751FDAC23E358002B04D0AC2341
:101D7000E35820009847CFE7054BAC22A350F6E785
:101D80002000FFF727FED6E70120E6E7FFF7FFFF79
:101D9000B905000841655823C2520233C2520023DC
:101DA0008366836880225201934208D0002B15D1AC
:101DB0000369002B0ED15C33FF22C25211E003698C
:101DC000002B03D15C33254AC2520AE05C23FF2278
:101DD000C25206E05C237F22C25202E05C23002252
:101DE000C25284230022C250043B2232C250EFF37D
:101DF000108C012181F31088026893680B43936073
:101E00008CF31088826880235B019A4213D0144BB4
:101E100083660369002B14D0EFF31081012383F351
:101E20001088026810682033FF330343136081F386
:101E30001088002070470369002BE8D1094B8366A6
:101E4000E7E7EFF31081012383F31088026813683A
:101E500020200343136081F31088EAE7FF010000AC
:101E6000C5120008A513000870B58023C358202BA5
:101E700023D1002923D0002A23D0846880235B014A
:101E80009C4204D10369002B01D1CB071BD4002352
:101E9000036603685B681B020CD5EFF3108C01230B
:101EA00083F31088046825688023DB042B432360B8
:101EB0008CF31088FFF76EFF00E0022070BD012058
:101EC000FCE70120FAE70120F8E70000014B186861
:101ED0007047C0462404002010B5034B0100186869
:101EE00000F00EF810BDC0462404002010B5034BCE
:101EF0000100186800F048FC10BDC0462404002012
:101F0000F0B54E464546DE465746E0B50D000B356A
:101F1000060085B0162D27D8102900D9DAE000F088
:101F20007BFB102518230221C74FFB181A005C68A1
:101F3000083A944200D146E103226368A1689343C2
:101F4000E268CA6091600121E3185A6830000A43D0
:101F50005A6000F069FB2000083005B0F0BCBB46B9
:101F6000B246A946A046F0BD07239D4300D5B1E087
:101F7000A94200D9AEE000F04FFBFC235B009D427C
:101F800000D29AE1690A00D1A8E0042900D94FE102
:101F900038239846A90988443931CB000822524297
:101FA0009446A94FFB189C446346DC68A44514D0B2
:101FB000032399460B0061469C4607E0E068002A2F
:101FC00000DBFAE0814200D1FBE004004A4663688E
:101FD00093435A1B0F2AF1DD41463A003C6908320F
:101FE000944200D1D8E0032063688343581B0F2834
:101FF00000DD66E13A617A610028A4DA7A689046E9
:1020000080229200934200D3E3E0DA0858090123CA
:102010008340404618438046D300DB199A687860B5
:10202000E360A2609C60D46001208B109840404522
:102030005CD8434603420AD10323994343464000F8
:102040000431034203D1400004310342FBD0032397
:10205000B3469C460E00B8460190F0004044010093
:10206000B246CB680BE064465A681F00A243DB68A7
:10207000541B0F2C00DDF3E0002C00DB0DE1994236
:10208000F1D101239946CA44534608319B07E8D150
:10209000032205E003680838013E834200D00AE2CB
:1020A0003242F7D14346019A5B68934342465360FC
:1020B000019A520001929A4216D8002A06D113E0E2
:1020C00004229146019ACA44520001921342F7D069
:1020D0005646C2E70C23002033603EE780233F22B0
:1020E000402190469B0059E75E4647460322BC6864
:1020F000636893439946AB4202D35B1B0F2B4EDCC4
:1021000023004B440293514B08201B6810335B198A
:10211000019300F073FA4E4903900B688B4601332C
:1021200006D08446019B4242013B63441340019325
:102130003000019900F012FC03008046013300D109
:10214000DDE0029B834200D9D7E0019A414B9446DF
:1021500019689A466144039A1960029B0800013A83
:10216000434500D0EAE04346134200D0E6E0BB68B6
:10217000984663464B441A0001231A4343465A606B
:10218000354B1868884200D21960344B1868884271
:1021900000D219604446B4E07B68984644E70122C7
:1021A000290013431143651961603000BD606B6005
:1021B00000F03AFA20000830CFE6A268D0608260D2
:1021C000C1E6614609E7DC680231A34200D104E7B9
:1021D000B2E65A0A042A00D888E0142A00D90FE18E
:1021E00010005B3082465C32D200082040428446B8
:1021F000BA189444624692680B308146944500D1E7
:10220000E5E00800A2466146844602E092689142F9
:1022100004D04C465068A0439842F7D8D368614632
:1022200054469C466346A260E3609C60D460FBE633
:10223000142973D9542900D9EBE06E239846290B51
:1022400088446F31CB00A9E618000020A4060020C6
:102250000C00002074060020A00600209C06002030
:10226000BA46012051468446491905435046456007
:10227000856847466046EB605E469D60534639611F
:102280007961204308374860CF6030008F609C50F0
:1022900000F0CAF9504608305FE6BA4601205E46B3
:1022A0005244516801435160BA683000D3609A606B
:1022B00000F0BAF9380008304FE62B00E90808337F
:1022C00032E66119884601218C460D43414665601E
:1022D00039617961CA608A60624602434A60E050AF
:1022E000300000F0A1F92000083036E69A0910000D
:1022F000393238308246D20077E7BC4214D0BC680D
:10230000626803239A43531BAA4202D30F2B00DDBA
:1023100045E7300000F088F900201EE65B23984670
:1023200088445C31CB0039E6644B9A461868019BBF
:102330009C46534660441860039B5A1E5B461B68CC
:10234000013371D0434602995B1A51461B180B604A
:1023500007234146404619400291184240D0039855
:10236000013384465B1A01999844414401916344C6
:1023700011405B1A1A4011003000934600F0EEFA4B
:10238000431C78D04346C01A03005B440193534674
:1023900019680120594419604346019ABB60024301
:1023A0005A60BC4200D1EBE64B460F2B40D90722C6
:1023B0000C3B93436268024005201A436260E218B6
:1023C000506090600F2B4BD843465A68D8E653466E
:1023D000981001238340404618438046786021E7E7
:1023E000019B039943441340CB1A1A40110030005B
:1023F000934600F0B3FA431CC4D100239B46C6E7C2
:10240000542A18D81A0B10006F326E308246D20050
:10241000EBE6AA235B00994218D8DD3B9846E90B0E
:1024200088447831CB00B9E55B46414619608FE7B7
:10243000434658606DE7AA204000824226D8DA0B56
:102440001000783277308246D200CEE61C4B99429B
:1024500026D87C239846A90C88447D31CB009DE585
:1024600021003000083100F08FF953461968BB682D
:1024700098465A6884E6019A029B94464246083B75
:1024800063449B1A019300239B4680E70C488242D9
:102490000CD89A0C10007D327C308246D200A4E623
:1024A000FE237E227F2190469B0077E5FE227E2040
:1024B0009200824699E643465B68F9E5740600207F
:1024C00054050000034B10B5002B02D0024800F069
:1024D000B3F810BD00000000CD250008F0B50500E0
:1024E000830749D0541E002A45D003000326CAB2F0
:1024F00002E00135013C3ED301332A703342F8D16A
:10250000032C30D9FF220A401502AD182A04AD1859
:102510000F2C34D92700103F3F093E01B4461E005E
:102520001A0010366644156055609560D56010320B
:102530009642F8D101373F01DB190F270C222740C3
:1025400022403C00002A0ED03E1FB608B400A4462C
:102550001A001C1D644420C2A242FCD1032401368F
:10256000B6009B193C40002C05D0C9B21C1919704B
:1025700001339C42FBD1F0BD03001400C0E72700EB
:10258000E2E7C04670B50D4B0D4D5E1BB610AB4279
:1025900005D0002408CD01349847A642FAD800F0AF
:1025A00043FA084B084D5E1BB610AB4205D0002421
:1025B00008CD01349847A642FAD870BDAC2A00086D
:1025C000AC2A0008B42A0008AC2A000870B5074CF1
:1025D000074D641BA41005D0013CA300EB5898479D
:1025E000002CF9D100F026FA70BDC046B82A0008C8
:1025F000B42A00087047C0467047C046802310B513
:102600005B01082801D1180010BDFFF75FFC1623FD
:102610000360173BF7E7C04610B50248FFF7EAFF33
:1026200010BDC046AC06002010B50248FFF7E4FF1D
:1026300010BDC046AC06002010B5010000230022EA
:10264000002000F09DF910BDF0B505000F2A31D92A
:1026500003273E000D430C0003002E402F4234D1CF
:102660001500103D2D09AC462F013F1865685D60CF
:10267000A5689D60E568DD60256810341D601D005B
:102680001033BD42F2D165460F230C2401352D01D4
:1026900049191340451914421AD0043B9B080133D1
:1026A0009B008C59AC5104369E42FAD10323AD19DC
:1026B00089191A40561E002A06D00023CC5C1A0045
:1026C000EC5401339642F9D1F0BD0500561EF4E7F3
:1026D0001A00EFE7F0B5C646060000B508200D0069
:1026E000FFF78CFF04003000FFF796FF234B21001B
:1026F00098469B685F6803239F4338001138401B4E
:102700000019FDF7DDFC451E6543AC4208DC0021E5
:10271000300000F023F943469B68DB19984206D04D
:102720003000FFF781FF002080BCB846F0BD3000CC
:10273000694200F013F901300ED0012243467F1B9D
:102740009B6817430E4A5F60136830005B1B136081
:10275000FFF76AFF0120E7E70021300000F0FEF8F4
:1027600043469A68831A0F2BDADD064C0449246825
:10277000001B086001210B435360D1E718000020C3
:10278000740600200C000020F8B5CE464746050030
:102790000C0080B5002957D0FFF73EFF0123210030
:1027A0009C46083948686246030003249343CF18C7
:1027B0007A68654EA243B468BC4200D170E0BC1890
:1027C000A14664467A60044221D10868091A1B18A0
:1027D0008868804648464068204034000834814676
:1027E000A04551D04046CC68C460A060484600284F
:1027F00011D19B185548BA68824200D17FE0F86831
:10280000D060826001221A434A60CB5007E04846FC
:1028100040682042EDD062461A434A603B60802205
:102820009200934214D2DA08580901238340706859
:1028300003437360D3009B199A68CB608A609960E8
:10284000D1602800FFF7F0FEC0BCB946B046F8BD25
:102850005C0A042C3DD89C09200039343830E4004F
:1028600034192268083C0327944203D140E092685F
:10287000944203D05068B8439842F8D8D468CC60EA
:102880008A60A160D160DCE7002858D1B868D2180E
:10289000FB68C3609860634613434B608A50D0E77F
:1028A0009A186346034206D10B68C91A8868D21881
:1028B000CB68C3609860012313434B60244BB16025
:1028C0001B689342BDD8234B28001968FFF702FF0D
:1028D000B7E7142C07D9542C1AD81C0B20006F34DE
:1028E0006E30E400BCE720005C345B30E400B7E706
:1028F000012380108340706803437360BFE7D16099
:102900009160CA608A6001221A434A60CB5098E7FE
:10291000AA225200944205D8DC0B2000783477308C
:10292000E4009DE70C4A944205D89C0C20007D34BD
:102930007C30E40094E7FE247E20A40090E7624609
:102940001A434A603B607CE718000020200000200A
:1029500010000020A406002054050000002370B5DC
:10296000064C050008002360FDF790FE431C00D0D4
:1029700070BD2368002BFBD02B60F9E77C09002099
:10298000F0B5D6464F4646469846244BC0B506009D
:1029900018689A460F009146FFF72CFE204B1D68E1
:1029A000002D32D053466C6818681F2C30DC002E86
:1029B0000CD1631C0234A4006B606751FFF71CFE4E
:1029C0000020E0BCBA46B146A846F0BD4946882280
:1029D000A300EB189950C42149008C46AC446146D1
:1029E000873AA240096891461143624611608421EA
:1029F000424649005A50022EDBD129004A468D3109
:102A0000FF310B6813430B60D3E7064D1D60C9E728
:102A1000FFF7F2FD01204042D3E7C046200400202A
:102A2000A8060020EC070020F8B5C046F8BC08BC9A
:102A30009E467047F8B5C046F8BC08BC9E46704735
:102A4000000000000102030400000000000000007C
:102A5000010203040607080901020304050607082A
:102A6000090A0B0C0D0E0F100203040506070809D6
:102A70000A0B0C0D0E0F1010C2140008CA14000827
:102A8000D2140008DA140008E2140008EA1400085E
:102A9000F2140008FA1400081215000812150008B4
:0C2AA00012150008021500080A150008B5
:082AAC00C52400084D020008DA
:042AB40021020008F3
:102AB80000127A000100000004000000FFFFFFFF81
:102AC80000000200000000000000000000000000FC
:102AD80018000020180000202000002020000020FE
:102AE80028000020280000203000002030000020AE
:102AF800380000203800002040000020400000205E
:102B0800480000204800002050000020500000200D
:102B180058000020580000206000002060000020BD
:102B2800680000206800002070000020700000206D
:102B3800780000207800002080000020800000201D
:102B480088000020880000209000002090000020CD
:102B58009800002098000020A0000020A00000207D
:102B6800A8000020A8000020B0000020B00000202D
:102B7800B8000020B8000020C0000020C0000020DD
:102B8800C8000020C8000020D0000020D00000208D
:102B9800D8000020D8000020E0000020E00000203D
:102BA800E8000020E8000020F0000020F0000020ED
:102BB800F8000020F800002000010020000100209B
:102BC8000801002008010020100100201001002049
:102BD80018010020180100202001002020010020F9
:102BE80028010020280100203001002030010020A9
:102BF8003801002038010020400100204001002059
:102C08004801002048010020500100205001002008
:102C180058010020580100206001002060010020B8
:102C28006801002068010020700100207001002068
:102C38007801002078010020800100208001002018
:102C480088010020880100209001002090010020C8
:102C58009801002098010020A0010020A001002078
:102C6800A8010020A8010020B0010020B001002028
:102C7800B8010020B8010020C0010020C0010020D8
:102C8800C8010020C8010020D0010020D001002088
:102C9800D8010020D8010020E0010020E001002038
:102CA800E8010020E8010020F0010020F0010020E8
:102CB800F8010020F8010020000200200002002096
:102CC8000802002008020020100200201002002044
:102CD80018020020180200202002002020020020F4
:102CE80028020020280200203002002030020020A4
:102CF8003802002038020020400200204002002054
:102D08004802002048020020500200205002002003
:102D180058020020580200206002002060020020B3
:102D28006802002068020020700200207002002063
:102D38007802002078020020800200208002002013
:102D480088020020880200209002002090020020C3
:102D58009802002098020020A0020020A002002073
:102D6800A8020020A8020020B0020020B002002023
:102D7800B8020020B8020020C0020020C0020020D3
:102D8800C8020020C8020020D0020020D002002083
:102D9800D8020020D8020020E0020020E002002033
:102DA800E8020020E8020020F0020020F0020020E3
:102DB800F8020020F8020020000300200003002091
:102DC800080300200803002010030020100300203F
:102DD80018030020180300202003002020030020EF
:102DE800280300202803002030030020300300209F
:102DF800380300203803002040030020400300204F
:102E080048030020480300205003002050030020FE
:102E180058030020580300206003002060030020AE
:102E2800680300206803002070030020700300205E
:102E3800780300207803002080030020800300200E
:102E480088030020880300209003002090030020BE
:102E58009803002098030020A0030020A00300206E
:102E6800A8030020A8030020B0030020B00300201E
:102E7800B8030020B8030020C0030020C0030020CE
:102E8800C8030020C8030020D0030020D00300207E
:102E9800D8030020D8030020E0030020E00300202E
:102EA800E8030020E8030020F0030020F0030020DE
:102EB800F8030020F803002000040020000400208C
:102EC800080400200804002010040020100400203A
:102ED800B00600202804002000000000B4060020EE
:102EE8001C070020840700200000000000000000EC
:102EF80000000000000000000000000000000000CA
:102F080000000000000000000000000000000000B9
:102F180000000000000000000000000000000000A9
:102F28000000000000000000000000000000000099
:102F38000000000000000000000000000000000089
:102F48000000000000000000000000000000000079
:102F58000000000000000000000000000000000069
:102F68000000000000000000000000000000000059
:102F780001000000000000000E33CDAB34126DE6F6
:102F8800ECDE05000B00000000000000000000005F
:102F98000000000000000000000000000000000029
:102FA8000000000000000000000000000000000019
:102FB8000000000000000000000000000000000009
:102FC80000000000000000000000000000000000F9
:102FD80000000000000000000000000000000000E9
:102FE80000000000000000000000000000000000D9
:082FF8000000000000000000D1
:04000005080006D910
:00000001FF
