:020000040800F2
:1000000000200020810500084D0500084F0500086C
:1000100000000000000000000000000000000000E0
:100020000000000000000000000000005105000872
:1000300000000000000000005305000855050008FE
:10004000D105000800000000D1050008D105000816
:10005000D1050008D1050008D1050008D105000828
:1000600000000000D1050008D10500085D0500086A
:10007000D1050008D1050008D105000800000000E6
:10008000D1050008D105000800000000D1050008D6
:10009000D1050008D1050008D1050008D1050008E8
:1000A000D1050008D1050008D1050008D1050008D8
:1000B0006D050008000000000000000000000000C6
:1000C000002243088B4274D303098B425FD3030A97
:1000D0008B4244D3030B8B4228D3030C8B420DD3AA
:1000E000FF22090212BA030C8B4202D31212090238
:1000F00065D0030B8B4219D300E0090AC30B8B4276
:1001000001D3CB03C01A5241830B8B4201D38B0323
:10011000C01A5241430B8B4201D34B03C01A5241C8
:10012000030B8B4201D30B03C01A5241C30A8B420B
:1001300001D3CB02C01A5241830A8B4201D38B02F6
:10014000C01A5241430A8B4201D34B02C01A52419A
:10015000030A8B4201D30B02C01A5241CDD2C3090C
:100160008B4201D3CB01C01A524183098B4201D388
:100170008B01C01A524143098B4201D34B01C01A73
:10018000524103098B4201D30B01C01A5241C308EB
:100190008B4201D3CB00C01A524183088B4201D35A
:1001A0008B00C01A524143088B4201D34B00C01A46
:1001B0005241411A00D20146524110467047FFE7B2
:1001C00001B5002000F006F802BDC0460029F7D0B6
:1001D00076E770477047C0460448054B10B5834228
:1001E00003D0044B002B00D0984710BD1000002016
:1001F000100000200000000006480749091A8B1073
:10020000C90FC91810B5491003D0044B002B00D0FA
:10021000984710BD100000201000002000000000D2
:1002200010B5074C2378002B09D1FFF7D5FF054BFC
:10023000002B02D0044800E000BF0123237010BD52
:100240001000002000000000741E0008054B10B5CF
:10025000002B03D00449054800E000BFFFF7CCFFA6
:1002600010BDC0460000000014000020741E0008ED
:1002700000B583B0094A516901231943516152699C
:1002800013400193019B002200210B2000F038FA5B
:100290000B2000F039FA03B000BDC0460010024048
:1002A00010B503680E4A934200D010BD0D4A127873
:1002B000D2B20A2A02D90B4A002111709B8CDBB200
:1002C000094A1370074A1078C0B208490B541378D2
:1002D0000133DBB213700648012201F0A1FCE4E710
:1002E000004400402D0000202C00002030000020A1
:1002F0008000002030B589B01422002103A801F04D
:10030000CDFC1D4B5A69802109030A435A615A6981
:100310000A400092009A5A698021C9030A435A612F
:100320005A690A400192019A5A69802189020A4356
:100330005A615B690B400293029B9025ED050022F8
:100340002021280000F08AFB80239B010393842353
:100350009B0304930024059403A9084800F0BAFA0B
:10036000202303931F3B04930594069403A92800BC
:1003700000F0B0FA09B030BD00100240000800489B
:1003800072B6FEE710B50B480B4B036096239B013A
:10039000436000238360C36003610C224261836178
:1003A000C3610362436201F08DFB002800D110BDE0
:1003B000FFF7E6FF800000200044004000B591B048
:1003C0003022002104A801F069FC102200216846B7
:1003D00001F064FC02230493012207920F32089279
:1003E0000C93A0239B030E9304A800F03DFB002870
:1003F0000ED107230093053B01930023029303933F
:100400000121684600F0A8FD002803D111B000BD0D
:10041000FFF7B6FFFFF7B4FF10B500F003F90022B5
:1004200000211C2000F06CF91C2000F06DF9FFF792
:10043000C5FFFFF75FFFFFF71BFFFFF7A3FF0B4CA5
:100440002268136820210B43136022681368103957
:100450000B431360064A0D39200000F065FF054983
:100460000122200001F0DCFBFEE7C04680000020F6
:10047000A10200083000002082B00A4B99690122D5
:100480001143996199690A400092009ADA698021C2
:1004900049050A43DA61DB690B400193019B02B015
:1004A0007047C0460010024010B588B00400142206
:1004B000002103A801F0F2FB2268204B9A4201D0F0
:1004C00008B010BD1E4BD969802292021143D96138
:1004D000D9691140019101995969114359615B69C9
:1004E00013400293029B0C2303930A3B0493013BAA
:1004F0000793902003A9C00500F0ECF91148124BB6
:1005000003600023436083608022C2600361436113
:100510008361C36100F01AF900280BD1094B6367AE
:100520005C62002200211C2000F0EAF81C2000F090
:10053000EBF8C5E7FFF724FFF0E7C04600440040B2
:10054000001002403C00002058000240FEE7FEE799
:100550007047704710B500F075F810BD10B502482F
:1005600000F063F910BDC0463C00002010B5024801
:1005700000F03CFF10BDC046800000207047000026
:100580000D488546FFF7FAFF0C480D490D4A002338
:1005900002E0D458C4500433C4188C42F9D30A4A38
:1005A0000A4C002301E013600432A242FBD301F0A5
:1005B000C9FBFFF731FFFEE700200020000000200C
:1005C00010000020041F000810000020D0020020AE
:1005D000FEE7000010B504000F4B1978FA208000E8
:1005E000FFF76EFD01000D4B1868FFF769FD00F085
:1005F00097F800280DD1032C01D901200AE0013021
:1006000000222100404200F07BF8054B1C600020D6
:1006100000E0012010BDC0460400002000000020C2
:100620000800002010B5064A136810210B43136020
:100630000020FFF7CFFFFFF71FFF002010BDC046CF
:1006400000200240034A1168034B1B785B181360BB
:100650007047C0463401002004000020014B186898
:100660007047C0463401002070B5002811DB8308B4
:10067000134DC0339B005C5903221040C000FC3274
:1006800016008640B44389010A40824022435A51F1
:1006900070BD0F230340083B9B0806339B00094AAB
:1006A000944663445C6803221040C000FC3215008D
:1006B0008540AC4389010A40824022435A60E7E703
:1006C00000E100E000ED00E0013880235B04984287
:1006D0000FD2094A50600948036A1B021B0AC02155
:1006E00009060B4303620023936007331360002065
:1006F00070470120FCE7C04610E000E000ED00E09C
:1007000010B5FFF7B1FF10BD002805DB1F22024026
:1007100001239340014A13607047C04600E100E0A6
:1007200010B5FFF7D1FF10BD10B504000068054BF0
:100730009C4660441421FFF7C3FC80002064024BF8
:10074000E36310BDF8FFFDBF0000024070B5041E5A
:1007500020D021250223435501680A680E4B1A4018
:10076000436880680343E06803432069034360698A
:100770000343A0690343E069034313430B60200074
:10078000FFF7D2FF0023A363012262551F32A35457
:10079000002070BD0120FCE70FC0FFFF10B5212332
:1007A000C35C022B06D0042383631C330022C25493
:1007B000012010BD026813680E218B43136001688D
:1007C0000A6801239A430A60016CC26B1C008C40CA
:1007D0005460212283541F330022C2540020E8E7D2
:1007E00010B52123C35C022B03D0042383630120B3
:1007F00010BD026813680E218B43136001680A68FC
:1008000001239A430A60016CC26B1C008C40546047
:10081000212283541F330022C254436B002B02D089
:1008200098470020E4E70020E2E770B5C36B1A6840
:1008300004682568016C04238B401A4212D06B07B0
:1008400010D523689B0603D42368042293432360B6
:10085000016CC26B04238B405360C36A002B00D031
:10086000984770BD02238B401A4218D0AB0716D5AB
:1008700023689B0606D423680A229343236021231E
:10088000093AC254016CC26B02238B40536020238F
:100890000022C254836A002BE3D09847E1E7082383
:1008A0008B401A42DDD02D07DBD523680E229343FF
:1008B0002360016CC26B01231C008C405460836375
:1008C000212283541F330022C254036B002BC8D053
:1008D0009847C6E7F0B583B0002356E086685F000E
:1008E0000324BC40A643CC68BC40344384604468C5
:1008F00094434E683609012232409A4022434260B6
:1009000053E0DE080836B600375805321A40920028
:100910000F249440A7430C69944022003A4332507C
:1009200056E0032600E00026A64034003C43023295
:100930009200444E9451444A9768EA433E00AE43C5
:100940004C68E40201D53E002E433F4CA660E768A8
:100950003E0016404C68A40201D53E002E433A4C9E
:10096000E66067683E0016404C68A40301D53E006F
:100970002E43354C6660266832404C68E40301D54E
:100980002A003243304C226001330C682200DA40E6
:1009900056D001229A40250015401442F4D04E68EA
:1009A00003243440013C012C98D94C680322224096
:1009B000032A08D0C4685E000322B24094438A68C8
:1009C000B2402243C2604C6803222240022A98D0DF
:1009D00004685E0003221700B740BC434F683A40EA
:1009E000B240224302604C68C02292021442CBD033
:1009F000164CA66901221643A661A4692240019201
:100A0000019A9A08941CA4000E4EA75903241C4076
:100A1000A4000F26A640B7439026F605B04282D028
:100A20000B4EB04208D00B4EB04207D00A4EB04237
:100A300000D176E7052677E7012675E7022673E7FA
:100A400003B0F0BD0000014000040140001002406E
:100A50000004004800080048000C0048002A01D0AB
:100A6000816170478162FCE770B582B0041E00D1DD
:100A70002EE20368DB0726D5AE4B5A680C231340E1
:100A8000042B18D0AB4B5A680C231340082B0ED004
:100A90006368012B3CD0002B51D1A64B1A68A649A4
:100AA0000A401A601A68A5490A401A6036E0A14B4C
:100AB0005B68DB03ECD59F4B1B689B0303D5636826
:100AC000002B00D107E223689B0772D5994B5B6826
:100AD0000C221A425DD0974B5A680C231340082B06
:100AE00053D0E368002B00D185E0924A13680121BE
:100AF0000B431360FFF7B2FD05008E4B1B689B078D
:100B000070D4FFF7ABFD401B0228F6D90320E0E1CB
:100B1000884A116880235B020B4313606368002BD3
:100B200025D0FFF79BFD0500824B1B689B03CAD4B1
:100B3000FFF794FD401B6428F6D90320C9E1052B7B
:100B400009D07C4B1A687C490A401A601A687B49B4
:100B50000A401A60E2E7774B19688022D2020A4302
:100B60001A601968802252020A431A60D6E7FFF71A
:100B700075FD05006F4B1B689B03A4D5FFF76EFD49
:100B8000401B6428F6D90320A3E16A4B5B68DB03B2
:100B9000A7D4684B1B689B0703D5E368012B00D0E3
:100BA0009BE164490B68F82293432269D200134306
:100BB0000B6023681B0744D5E369002B2ED05D4AE8
:100BC000536A01210B435362FFF748FD0500594B5F
:100BD0005B6A9B0735D4FFF741FD401B0228F6D91D
:100BE000032076E153490B68F82293432269D2002F
:100BF00013430B60DDE74F4A136801218B431360F9
:100C0000FFF72CFD05004B4B1B689B07D1D5FFF769
:100C100025FD401B0228F6D903205AE1454A536AB4
:100C200001218B435362FFF719FD0500414B5B6ABD
:100C30009B0706D5FFF712FD401B0228F6D90320BB
:100C400047E123685B0700D480E03A4BDB69DB00B7
:100C50001DD4384BDA69802149050A43DA61DB6922
:100C60000B400193019B0125354B1B68DB0510D51B
:100C7000A368012B21D0002B36D12E4B1A6A0121FB
:100C80008A431A621A6A03318A431A621AE00025FB
:100C9000EAE72B4A116880235B000B431360FFF7E0
:100CA000DDFC0600264B1B68DB05E1D4FFF7D6FC14
:100CB000801B6428F6D903200BE11E4A136A012128
:100CC0000B431362A368002B24D0FFF7C7FC060078
:100CD000184B1B6A9B0737D4FFF7C0FC801B194BCE
:100CE0009842F5D90320F4E0052B09D0114B1A6A7C
:100CF00001218A431A621A6A03318A431A62E1E7C0
:100D00000C4B1A6A04210A431A621A6A03390A430D
:100D10001A62D7E7FFF7A2FC0600064B1B6A9B0787
:100D200012D5FFF79BFC801B064B9842F5D9032098
:100D3000CFE0C04600100240FFFFFEFFFFFFFBFFB9
:100D40000070004088130000012D33D02368DB06BB
:100D500010D56369012B33D0053351D1654A536BEC
:100D600004218B435363536BF4318B43A169C90056
:100D70000B435363236A002B00D1B0E05D4A5168F6
:100D80000C220A40082A00D18AE0022B4FD0594A8F
:100D9000136859490B401360FFF760FC0400554B82
:100DA0001B689B017AD5FFF759FC001B0228F6D976
:100DB00003208EE04F4AD36950490B40D361C5E709
:100DC0004C4B5A6B04210A435A635A6B03390A434A
:100DD0005A63FFF743FC0500464B5B6B9B0706D449
:100DE000FFF73CFC401B0228F6D9032071E0414983
:100DF0004B6BF8229343A269D20013434B63B9E7CC
:100E00003C4B5A6B04210A435A635A6B03398A4399
:100E10005A63FFF723FC0500364B5B6B9B07A9D594
:100E2000FFF71CFC401B0228F6D9032051E0314A91
:100E3000136831490B401360FFF710FC05002D4B80
:100E40001B689B0106D5FFF709FC401B0228F6D959
:100E500003203EE0274BDA6A0F218A43E16A0A4306
:100E6000DA625A6826490A40A16A606A01430A4365
:100E70005A601968802252040A431A60FFF7EEFB99
:100E800004001C4B1B689B0106D4FFF7E7FB001B0B
:100E90000228F6D903201CE000201AE0002018E008
:100EA000012B1ED0134B5A68D86A80235B02134073
:100EB000616A8B4217D10F230340E16A8B4214D140
:100EC000F0239B031A40A36A9A4210D1002000E04D
:100ED000012002B070BD0120FBE70120F9E70020EE
:100EE000F7E70120F5E70120F3E70120F1E7012012
:100EF000EFE7C04600100240FFFFFFFEFFFFFFEFDD
:100F0000FFFFC2FF10B5104B5A680C231340082B8B
:100F100001D00E4810BD910C073319400C48445CB9
:100F20000949C96A0B400B49C95CD20304D507487B
:100F3000FFF7C6F86043EDE76201121B93019B1AAD
:100F4000DB001B191802E5E70010024000127A00CE
:100F5000B41E0008A41E000870B504000D0000288F
:100F600000D17EE0434B1A68012313408B420AD222
:100F700040490B68012293432B430B600B681A40D6
:100F8000AA4200D06FE023689A070ED55B0705D50B
:100F9000394A5168E023DB000B435360364A5368FB
:100FA000F0218B43A1680B4353602368DB072DD5E9
:100FB0006368012B1ED0022B22D02F4A12689207A1
:100FC00053D52D494A680320824313434B60FFF7F2
:100FD00045FB0600284B5B680C221A4063689B00A7
:100FE0009A4213D0FFF73AFB801B244B9842F1D969
:100FF000032035E0204A12689203E2D401202FE05A
:101000001D4A12689201DCD4012029E0194B1A68AC
:1010100001231340AB4209D916490B6801229343BF
:101020002B430B600B681A40AA4220D123685B0750
:1010300006D5114A536812490B40E1680B435360CF
:10104000FFF760FF0C4B5A6812090F2313400D4A3B
:10105000D35CD8400C4B18600020FFF7BBFA00208F
:1010600070BD0120FCE70120FAE70120F8E701202C
:10107000F6E7C0460020024000100240881300003E
:10108000FFF8FFFF941E000800000020014B1868C5
:101090007047C0460000002010B5FFF7F7FF044B73
:1010A0005A68120A07231340024AD35CD84010BD85
:1010B000001002408C1E0008704770477047704750
:1010C00070477047704770477047000010B5EFF3E6
:1010D000108C012282F3108801680B68124C2340A7
:1010E0000B608CF31088EFF3108C82F3108801688A
:1010F0008B6893438B608CF31088036E012B06D0B2
:1011000080232022C25000230366836610BDEFF3C4
:10111000108183F31088026813683234FF34A343CC
:10112000136081F31088EBE7DFFEFFFF10B5406A24
:1011300000235A228352083A83529833C35898475F
:1011400010BD10B5EFF31081012383F310880268FE
:1011500013684024A343136081F310882023C367DE
:101160000023C3668C33C358984710BD10B55C2369
:10117000C35A80228258222A05D002689369082126
:101180000B43936110BD0268928CDBB2416D13403A
:101190000B70436D013343655A22835A013B9BB266
:1011A0008352835A9BB2002BECD1EFF3108C593A47
:1011B00082F3108801680B68224C23400B608CF38B
:1011C0001088EFF3108C82F3108801688B689343CA
:1011D0008B608CF3108880231F32C25000238366FB
:1011E000436603685B681B020BD5EFF31081012394
:1011F00083F3108802681368134C2340136081F353
:101200001088036E012B03D09423C3589847B9E785
:1012100000230366EFF31084013383F31088016821
:101220000B68102293430B6084F310880368D9691C
:101230000A4200D01A62A823C3585822815A9847FC
:10124000A0E7C046DFFEFFFFFFFFFFFB10B55C23FA
:10125000C25A2433C358222B05D00268936908214F
:101260000B43936110BD03689B8C416D13400B8051
:10127000436D023343655A22835A013B9BB283522A
:10128000835A9BB2002BEDD1EFF3108C593A82F3C5
:10129000108801680B68224C23400B608CF3108887
:1012A000EFF3108C82F3108801688B6893438B6096
:1012B0008CF3108880231F32C2500023836643665C
:1012C00003685B681B020BD5EFF31081012383F3E6
:1012D000108802681368134C2340136081F3108850
:1012E000036E012B03D09423C3589847BAE7002319
:1012F0000366EFF31084013383F3108801680B68F1
:10130000102293430B6084F310880368D9690A4262
:1013100000D01A62A823C3585822815A9847A1E7DF
:10132000DFFEFFFFFFFFFFFB10B5002A10D0C36FE9
:10133000202B14D0C36F002B4ED10B2944D00C2985
:1013400046D08422835840210B438350012049E03A
:101350008432835840210B438350012042E00C2902
:101360002BD88B00204CE3589F468823C25008009E
:1013700038E08C23C250002034E09023C25000207B
:1013800030E09423C25000202CE09823C25000206B
:1013900028E09C23C250002024E0A023C25000205B
:1013A00020E0A423C25000201CE0AC23C250002047
:1013B00018E0B023C250002014E08422835840215A
:1013C0000B43835001200DE0AC23C250002009E004
:1013D000B023C250002005E08422835840210B43F3
:1013E0008350012010BDC046C41E000870B5040023
:1013F0000268D36911689068A84D2B4209D19806FC
:101400000FD588060DD5A36E002B18D02000984765
:1014100015E001252E000640054211D1A0480142E9
:101420000ED1206E012800D190E01A0602D50A06DE
:1014300000D527E15B0602D5490600D529E170BD3C
:10144000D80707D5C80505D501251562842022587F
:101450002A4322509A0709D5002E07D0226802207D
:1014600010628230225804252A4322505A0709D597
:10147000002E07D0226804201062803022580225F6
:101480002A4322501A070AD58A0601D4002E06D014
:10149000226808251562842022582A4322501A0502
:1014A0000AD54A0108D522688020000110628420F4
:1014B000225820252A4322508422A258002ABED036
:1014C0009B0606D5890604D5A36E002B01D020000B
:1014D00098478423E25823689B685B0602D428233C
:1014E00013422BD02000FFF7F1FD23689B685B06B9
:1014F0001FD5EFF31081012383F3108822689368CE
:1015000040208343936081F31088636F002B0BD0DE
:10151000644A5A63606FFFF763F9002800D18EE7D1
:10152000606F436B98478AE79823E35820009847F9
:1015300085E79823E3582000984780E79823E358ED
:101540002000984784230022E25078E7D80600D490
:101550006BE7C80600D468E71023136223689B6812
:101560005B0653D5626F13685B689BB2002B00D19A
:1015700065E75821615A994200D860E75A216352C1
:101580009369202B0CD102236366A633E3585822BB
:10159000A15A0232A25A891A89B2200098474EE70E
:1015A000EFF31080012383F3108821680A683E4D11
:1015B0002A400A6080F31088EFF3108083F31088CC
:1015C00021688A689A438A6080F31088EFF310805C
:1015D00083F3108821688A684235FF35AA438A6000
:1015E00080F3108880222021A15000222266EFF390
:1015F000108183F3108822681368102083431360DE
:1016000081F31088606FFFF7C9F8BCE75823E35AED
:101610005A22A15A591A89B2A35A9BB2002B00D15F
:101620000DE7002900D10AE7EFF31085012383F3CA
:101630001088206802681D4E3240026085F31088D1
:10164000EFF3108583F31088206882689A438260E4
:1016500085F3108880222020A05000222266A266F6
:10166000EFF3108083F31088226813681025AB43D2
:10167000136080F3108802236366A633E3582000CA
:101680009847DCE6E36E002B00D1D8E620009847AF
:10169000D5E62000FFF755FDD1E6C0460F08000053
:1016A000200100042D110008FFFEFFFFDFFEFFFFF9
:1016B0000D4B882283500D4B043283500C4B043267
:1016C00083500C4B043283500B4B043283500B4B32
:1016D000043283500A4B043283500A4B0432835045
:1016E000094B043283507047BB100008B910000842
:1016F000BF100008BD100008C1100008C31000088A
:10170000C5100008C7100008C910000810B5040073
:1017100083680269134342691343C2691343016832
:101720000A684E48024013430B60226853684C49D4
:101730000B40E1680B435360A369226A1A43216896
:101740008B684848034013438B602368464A9342A2
:1017500011D0464A93421FD01023E0698022120222
:10176000904223D0042B6AD04ED8002B53D0022BAA
:1017700048D13F4853E03F4B1A6B03231340022BE1
:101780000CD005D8002B0BD0012B0BD10333E4E791
:10179000032B09D1013BE0E70023DEE70823DCE768
:1017A0000023DAE71023D8E71023D6E7042B26D04E
:1017B00007D8002B09D0022B01D12D4809E00120C8
:1017C00047E0082B05D0012043E0FFF765FC002827
:1017D00038D0400061684B08C018FEF771FC020069
:1017E000103A254B9A422FD882B20F239A434008D1
:1017F000083B034013432268D360002029E0FFF731
:1018000081FBE4E7012024E0082B02D180200002C4
:1018100005E001201DE0FFF73FFC002816D06168BD
:101820004B081818FEF74CFC0200103A124B9A4273
:101830000ED823680004000CD860002009E0FFF7F0
:1018400061FBEAE7002004E0012002E0002000E064
:1018500001200023A366E36610BDC046F369FFFFC5
:10186000FFCFFFFFFFF4FFFF0038014000440040BE
:1018700000127A0000100240EFFF0000436ADB070D
:1018800006D5026853682C490B40816A0B435360AC
:10189000436A9B0706D50268536828490B40C16A12
:1018A0000B435360436A5B0706D5026853682449BB
:1018B0000B40016B0B435360436A1B0706D502685C
:1018C000536820490B40416B0B435360436ADB066E
:1018D00006D5026893681C490B40816B0B439360EB
:1018E000436A9B0606D50268936818490B40C16B92
:1018F0000B439360436A5B060BD502685368144937
:101900000B40016C0B435360026C80235B039A42D3
:101910000AD0436A1B0606D5026853680D490B407E
:10192000816C0B4353607047026853680A490B404F
:10193000416C0B435360ECE7FFFFFDFFFFFFFEFF31
:10194000FFFFFBFFFF7FFFFFFFEFFFFFFFDFFFFF5B
:10195000FFFFEFFFFFFFF7FFFFFF9FFFF8B5CE464A
:10196000474680B506000D0017009946089B98462B
:101970003368DC692C40641B63425C41BC422FD15C
:1019800043460133F4D0FEF769FE4B46C01A40458A
:101990002BD84346002B2AD033681A685207E7D564
:1019A000DA69120710D4DA691205E1D58022120132
:1019B0001A623000FFF78AFB84232022F2500C3B8E
:1019C0000022F25403200CE008241C623000FFF7D0
:1019D0007DFB8423F4500C3B0022F254012000E0F4
:1019E0000020C0BCB946B046F8BD0320F9E703208B
:1019F000F7E7000030B583B0040084230022C25012
:101A0000FEF72CFE050023681B681B070FD4236814
:101A10001B685B0729D42023E3678022A35000239F
:101A200023666366083AA354002003B030BD8021CA
:101A3000224B00930300002289032000FFF78EFF52
:101A40000028E4D0EFF31081012383F3108822688B
:101A5000136880208343136081F310882023E36799
:101A600058330022E2547D38DFE78021134B009386
:101A70002B000022C9032000FFF770FF0028CAD006
:101A8000EFF31080012282F3108821680B680C4D5F
:101A90002B400B6080F31088EFF3108082F31088E6
:101AA00021688B6893438B6080F3108880231F32FA
:101AB000E250083B0022E2540320B6E7FFFFFF019B
:101AC000DFFEFFFF10B5041E3AD0C36F002B21D0FC
:101AD0002423E3672268136801218B4313602000ED
:101AE000FFF714FE012814D0636A002B24D122686A
:101AF000536814490B4053602268936808218B4354
:101B000093602268136807390B4313602000FFF7C6
:101B100071FF10BD78330022C254FFF7C9FDAC231A
:101B2000E358002B04D0AC23E35820009847CFE7BC
:101B3000054BAC22A350F6E72000FFF79FFED6E747
:101B40000120E6E7FFF7FFFFA904000841655823DD
:101B5000C2520233C252002383668368802252013C
:101B6000934208D0002B15D10369002B0ED15C33B2
:101B7000FF22C25211E00369002B03D15C33254AD6
:101B8000C2520AE05C23FF22C25206E05C237F229D
:101B9000C25202E05C230022C25284230022C250BF
:101BA000043B2232C250EFF3108C012181F31088E4
:101BB000026893680B4393608CF3108882688023DB
:101BC0005B019A4213D0144B83660369002B14D037
:101BD000EFF31081012383F310880268106820332B
:101BE000FF330343136081F31088002070470369BB
:101BF000002BE8D1094B8366E7E7EFF3108101235F
:101C000083F310880268136820200343136081F374
:101C10001088EAE7FF0100006D1100084D1200086E
:101C200070B58023C358202B23D1002923D0002A4C
:101C300023D0846880235B019C4204D10369002B7C
:101C400001D1CB071BD40023036603685B681B022A
:101C50000CD5EFF3108C012383F3108804682568FA
:101C60008023DB042B4323608CF31088FFF76EFF87
:101C700000E0022070BD0120FCE70120FAE701200E
:101C8000F8E70000034B10B5002B02D0024800F02B
:101C900095F810BD000000008D1D0008F0B505008E
:101CA000830749D0541E002A45D003000326CAB238
:101CB00002E00135013C3ED301332A703342F8D1B2
:101CC000032C30D9FF220A401502AD182A04AD18A2
:101CD0000F2C34D92700103F3F093E01B4461E00A7
:101CE0001A0010366644156055609560D560103254
:101CF0009642F8D101373F01DB190F270C2227400C
:101D000022403C00002A0ED03E1FB608B400A44674
:101D10001A001C1D644420C2A242FCD103240136D7
:101D2000B6009B193C40002C05D0C9B21C19197093
:101D300001339C42FBD1F0BD03001400C0E7270033
:101D4000E2E7C04670B50D4B0D4D5E1BB610AB42C1
:101D500005D0002408CD01349847A642FAD800F0F7
:101D600089F8084B084D5E1BB610AB4205D0002425
:101D700008CD01349847A642FAD870BDF81E000875
:101D8000F81E0008001F0008F81E000870B5074C78
:101D9000074D641BA41005D0013CA300EB589847E5
:101DA000002CF9D100F06CF870BDC046041F00088B
:101DB000001F00087047C0467047C04610B50100BC
:101DC00000230022002000F001F810BDF0B5D64637
:101DD0004F4646469846244BC0B5060018689A46BA
:101DE0000F009146FFF7E6FF204B1D68002D32D013
:101DF00053466C6818681F2C30DC002E0CD1631C15
:101E00000234A4006B606751FFF7D6FF0020E0BCEE
:101E1000BA46B146A846F0BD49468822A300EB1851
:101E20009950C42149008C46AC446146873AA2408F
:101E30000968914611436246116084214246490077
:101E40005A50022EDBD129004A468D31FF310B68F2
:101E500013430B60D3E7064D1D60C9E7FFF7ACFFE6
:101E600001204042D3E7C0460C000020380100208A
:101E700040010020F8B5C046F8BC08BC9E4670473B
:0C1E8000F8B5C046F8BC08BC9E46704790
:101E8C00000000000102030400000000000000003C
:101E9C0001020304060708090102030405060708EA
:101EAC00090A0B0C0D0E0F10020304050607080996
:101EBC000A0B0C0D0E0F10106A1300087213000899
:101ECC007A130008821300088A1300089213000882
:101EDC009A130008A2130008BA130008BA130008DA
:0C1EEC00BA130008AA130008B213000883
:081EF800851C00084D020008E2
:041F000021020008B2
:101F040000127A0001000000040000003C010020DF
:040000050800058169
:00000001FF
